{
  "_format": "hh3-artifact-1",
  "contractName": "Staking",
  "sourceName": "contracts/Staking.sol",
  "abi": [
    {
      "inputs": [
        {
          "internalType": "address",
          "name": "_stakeToken",
          "type": "address"
        },
        {
          "internalType": "address",
          "name": "_rewardToken",
          "type": "address"
        }
      ],
      "stateMutability": "nonpayable",
      "type": "constructor"
    },
    {
      "inputs": [
        {
          "internalType": "address",
          "name": "owner",
          "type": "address"
        }
      ],
      "name": "OwnableInvalidOwner",
      "type": "error"
    },
    {
      "inputs": [
        {
          "internalType": "address",
          "name": "account",
          "type": "address"
        }
      ],
      "name": "OwnableUnauthorizedAccount",
      "type": "error"
    },
    {
      "inputs": [],
      "name": "ReentrancyGuardReentrantCall",
      "type": "error"
    },
    {
      "inputs": [
        {
          "internalType": "address",
          "name": "token",
          "type": "address"
        }
      ],
      "name": "SafeERC20FailedOperation",
      "type": "error"
    },
    {
      "anonymous": false,
      "inputs": [
        {
          "indexed": true,
          "internalType": "address",
          "name": "user",
          "type": "address"
        },
        {
          "indexed": false,
          "internalType": "uint256",
          "name": "amount",
          "type": "uint256"
        }
      ],
      "name": "EmergencyWithdrawn",
      "type": "event"
    },
    {
      "anonymous": false,
      "inputs": [
        {
          "indexed": true,
          "internalType": "address",
          "name": "previousOwner",
          "type": "address"
        },
        {
          "indexed": true,
          "internalType": "address",
          "name": "newOwner",
          "type": "address"
        }
      ],
      "name": "OwnershipTransferred",
      "type": "event"
    },
    {
      "anonymous": false,
      "inputs": [
        {
          "indexed": true,
          "internalType": "address",
          "name": "user",
          "type": "address"
        },
        {
          "indexed": false,
          "internalType": "uint256",
          "name": "amount",
          "type": "uint256"
        }
      ],
      "name": "RewardClaimed",
      "type": "event"
    },
    {
      "anonymous": false,
      "inputs": [
        {
          "indexed": false,
          "internalType": "uint256",
          "name": "newEndTime",
          "type": "uint256"
        }
      ],
      "name": "RewardEndTimeUpdated",
      "type": "event"
    },
    {
      "anonymous": false,
      "inputs": [
        {
          "indexed": false,
          "internalType": "uint256",
          "name": "newRate",
          "type": "uint256"
        }
      ],
      "name": "RewardRateUpdated",
      "type": "event"
    },
    {
      "anonymous": false,
      "inputs": [
        {
          "indexed": false,
          "internalType": "uint256",
          "name": "amount",
          "type": "uint256"
        }
      ],
      "name": "RewardsFunded",
      "type": "event"
    },
    {
      "anonymous": false,
      "inputs": [
        {
          "indexed": true,
          "internalType": "address",
          "name": "user",
          "type": "address"
        },
        {
          "indexed": false,
          "internalType": "uint256",
          "name": "amount",
          "type": "uint256"
        }
      ],
      "name": "Staked",
      "type": "event"
    },
    {
      "anonymous": false,
      "inputs": [
        {
          "indexed": true,
          "internalType": "address",
          "name": "user",
          "type": "address"
        },
        {
          "indexed": false,
          "internalType": "uint256",
          "name": "amount",
          "type": "uint256"
        }
      ],
      "name": "Withdrawn",
      "type": "event"
    },
    {
      "inputs": [],
      "name": "accRewardPerShare",
      "outputs": [
        {
          "internalType": "uint256",
          "name": "",
          "type": "uint256"
        }
      ],
      "stateMutability": "view",
      "type": "function"
    },
    {
      "inputs": [],
      "name": "claimRewards",
      "outputs": [],
      "stateMutability": "nonpayable",
      "type": "function"
    },
    {
      "inputs": [],
      "name": "emergencyWithdraw",
      "outputs": [],
      "stateMutability": "nonpayable",
      "type": "function"
    },
    {
      "inputs": [
        {
          "internalType": "uint256",
          "name": "amount",
          "type": "uint256"
        }
      ],
      "name": "fundRewards",
      "outputs": [],
      "stateMutability": "nonpayable",
      "type": "function"
    },
    {
      "inputs": [
        {
          "internalType": "address",
          "name": "_user",
          "type": "address"
        }
      ],
      "name": "getPendingRewards",
      "outputs": [
        {
          "internalType": "uint256",
          "name": "",
          "type": "uint256"
        }
      ],
      "stateMutability": "view",
      "type": "function"
    },
    {
      "inputs": [
        {
          "internalType": "address",
          "name": "user",
          "type": "address"
        }
      ],
      "name": "getStakedBalance",
      "outputs": [
        {
          "internalType": "uint256",
          "name": "",
          "type": "uint256"
        }
      ],
      "stateMutability": "view",
      "type": "function"
    },
    {
      "inputs": [],
      "name": "lastRewardTime",
      "outputs": [
        {
          "internalType": "uint256",
          "name": "",
          "type": "uint256"
        }
      ],
      "stateMutability": "view",
      "type": "function"
    },
    {
      "inputs": [],
      "name": "owner",
      "outputs": [
        {
          "internalType": "address",
          "name": "",
          "type": "address"
        }
      ],
      "stateMutability": "view",
      "type": "function"
    },
    {
      "inputs": [],
      "name": "renounceOwnership",
      "outputs": [],
      "stateMutability": "nonpayable",
      "type": "function"
    },
    {
      "inputs": [],
      "name": "rewardEndTime",
      "outputs": [
        {
          "internalType": "uint256",
          "name": "",
          "type": "uint256"
        }
      ],
      "stateMutability": "view",
      "type": "function"
    },
    {
      "inputs": [],
      "name": "rewardRate",
      "outputs": [
        {
          "internalType": "uint256",
          "name": "",
          "type": "uint256"
        }
      ],
      "stateMutability": "view",
      "type": "function"
    },
    {
      "inputs": [],
      "name": "rewardToken",
      "outputs": [
        {
          "internalType": "contract IERC20",
          "name": "",
          "type": "address"
        }
      ],
      "stateMutability": "view",
      "type": "function"
    },
    {
      "inputs": [
        {
          "internalType": "uint256",
          "name": "_endTime",
          "type": "uint256"
        }
      ],
      "name": "setRewardEndTime",
      "outputs": [],
      "stateMutability": "nonpayable",
      "type": "function"
    },
    {
      "inputs": [
        {
          "internalType": "uint256",
          "name": "_rate",
          "type": "uint256"
        }
      ],
      "name": "setRewardRate",
      "outputs": [],
      "stateMutability": "nonpayable",
      "type": "function"
    },
    {
      "inputs": [
        {
          "internalType": "uint256",
          "name": "amount",
          "type": "uint256"
        }
      ],
      "name": "stake",
      "outputs": [],
      "stateMutability": "nonpayable",
      "type": "function"
    },
    {
      "inputs": [],
      "name": "stakeToken",
      "outputs": [
        {
          "internalType": "contract IERC20",
          "name": "",
          "type": "address"
        }
      ],
      "stateMutability": "view",
      "type": "function"
    },
    {
      "inputs": [],
      "name": "totalStaked",
      "outputs": [
        {
          "internalType": "uint256",
          "name": "",
          "type": "uint256"
        }
      ],
      "stateMutability": "view",
      "type": "function"
    },
    {
      "inputs": [
        {
          "internalType": "address",
          "name": "newOwner",
          "type": "address"
        }
      ],
      "name": "transferOwnership",
      "outputs": [],
      "stateMutability": "nonpayable",
      "type": "function"
    },
    {
      "inputs": [
        {
          "internalType": "address",
          "name": "",
          "type": "address"
        }
      ],
      "name": "users",
      "outputs": [
        {
          "internalType": "uint256",
          "name": "amount",
          "type": "uint256"
        },
        {
          "internalType": "uint256",
          "name": "rewardDebt",
          "type": "uint256"
        }
      ],
      "stateMutability": "view",
      "type": "function"
    },
    {
      "inputs": [
        {
          "internalType": "uint256",
          "name": "amount",
          "type": "uint256"
        }
      ],
      "name": "withdraw",
      "outputs": [],
      "stateMutability": "nonpayable",
      "type": "function"
    }
  ],
  "bytecode": "0x608060405234801561000f575f5ffd5b50604051611ed6380380611ed68339818101604052810190610031919061025f565b335f73ffffffffffffffffffffffffffffffffffffffff168173ffffffffffffffffffffffffffffffffffffffff16036100a2575f6040517f1e4fbdf700000000000000000000000000000000000000000000000000000000815260040161009991906102ac565b60405180910390fd5b6100b18161014060201b60201c565b50600180819055508160025f6101000a81548173ffffffffffffffffffffffffffffffffffffffff021916908373ffffffffffffffffffffffffffffffffffffffff1602179055508060035f6101000a81548173ffffffffffffffffffffffffffffffffffffffff021916908373ffffffffffffffffffffffffffffffffffffffff16021790555050506102c5565b5f5f5f9054906101000a900473ffffffffffffffffffffffffffffffffffffffff169050815f5f6101000a81548173ffffffffffffffffffffffffffffffffffffffff021916908373ffffffffffffffffffffffffffffffffffffffff1602179055508173ffffffffffffffffffffffffffffffffffffffff168173ffffffffffffffffffffffffffffffffffffffff167f8be0079c531659141344cd1fd0a4f28419497f9722a3daafe3b4186f6b6457e060405160405180910390a35050565b5f5ffd5b5f73ffffffffffffffffffffffffffffffffffffffff82169050919050565b5f61022e82610205565b9050919050565b61023e81610224565b8114610248575f5ffd5b50565b5f8151905061025981610235565b92915050565b5f5f6040838503121561027557610274610201565b5b5f6102828582860161024b565b92505060206102938582860161024b565b9150509250929050565b6102a681610224565b82525050565b5f6020820190506102bf5f83018461029d565b92915050565b611c04806102d25f395ff3fe608060405234801561000f575f5ffd5b506004361061012a575f3560e01c80639231cf74116100ab578063a87430ba1161006f578063a87430ba146102d0578063db2e21bc14610301578063f2fde38b1461030b578063f6ed201714610327578063f7c618c1146103575761012a565b80639231cf741461024057806393707a191461025e578063939d62371461027a5780639e447fc614610298578063a694fc3a146102b45761012a565b806351ed6a30116100f257806351ed6a30146101be578063715018a6146101dc5780637b0a47ee146101e6578063817b1cd2146102045780638da5cb5b146102225761012a565b8063018413e71461012e5780632e1a7d4d1461014a578063372500ab1461016657806337e9f64a146101705780633a02a42d1461018e575b5f5ffd5b610148600480360381019061014391906114af565b610375565b005b610164600480360381019061015f91906114af565b610408565b005b61016e610675565b005b6101786107c7565b60405161018591906114e9565b60405180910390f35b6101a860048036038101906101a3919061155c565b6107cd565b6040516101b591906114e9565b60405180910390f35b6101c6610815565b6040516101d391906115e2565b60405180910390f35b6101e461083a565b005b6101ee61084d565b6040516101fb91906114e9565b60405180910390f35b61020c610853565b60405161021991906114e9565b60405180910390f35b61022a610859565b604051610237919061160a565b60405180910390f35b610248610880565b60405161025591906114e9565b60405180910390f35b610278600480360381019061027391906114af565b610886565b005b610282610958565b60405161028f91906114e9565b60405180910390f35b6102b260048036038101906102ad91906114af565b61095e565b005b6102ce60048036038101906102c991906114af565b6109f3565b005b6102ea60048036038101906102e5919061155c565b610c6c565b6040516102f8929190611623565b60405180910390f35b610309610c8c565b005b6103256004803603810190610320919061155c565b610dec565b005b610341600480360381019061033c919061155c565b610e70565b60405161034e91906114e9565b60405180910390f35b61035f610f6b565b60405161036c91906115e2565b60405180910390f35b61037d610f90565b4281116103bf576040517f08c379a00000000000000000000000000000000000000000000000000000000081526004016103b6906116a4565b60405180910390fd5b6103c7611017565b806009819055507ffdc54c80c78674baa0169c68fbf18f553eb14ee3537ad05eb491b5de2d7cc0cf816040516103fd91906114e9565b60405180910390a150565b6104106110c3565b5f60045f3373ffffffffffffffffffffffffffffffffffffffff1673ffffffffffffffffffffffffffffffffffffffff1681526020019081526020015f2090505f8211610492576040517f08c379a00000000000000000000000000000000000000000000000000000000081526004016104899061170c565b60405180910390fd5b81815f015410156104d8576040517f08c379a00000000000000000000000000000000000000000000000000000000081526004016104cf90611774565b60405180910390fd5b6104e0611017565b5f816001015464e8d4a51000600854845f01546104fd91906117bf565b610507919061182d565b610511919061185d565b90505f811115610574576105253382611109565b3373ffffffffffffffffffffffffffffffffffffffff167f106f923f993c2149d49b4255ff723acafa1f2d94393f561d3eda32ae348f72418260405161056b91906114e9565b60405180910390a25b82825f015f828254610586919061185d565b925050819055508260075f82825461059e919061185d565b925050819055506105f1338460025f9054906101000a900473ffffffffffffffffffffffffffffffffffffffff1673ffffffffffffffffffffffffffffffffffffffff1661120b9092919063ffffffff16565b64e8d4a51000600854835f015461060891906117bf565b610612919061182d565b82600101819055503373ffffffffffffffffffffffffffffffffffffffff167f7084f5476618d8e60b11ef0d7d3f06914655adb8793e28ff7f018d4c76d505d58460405161066091906114e9565b60405180910390a2505061067261128a565b50565b61067d6110c3565b5f60045f3373ffffffffffffffffffffffffffffffffffffffff1673ffffffffffffffffffffffffffffffffffffffff1681526020019081526020015f2090506106c5611017565b5f816001015464e8d4a51000600854845f01546106e291906117bf565b6106ec919061182d565b6106f6919061185d565b90505f811161073a576040517f08c379a0000000000000000000000000000000000000000000000000000000008152600401610731906118da565b60405180910390fd5b6107443382611109565b3373ffffffffffffffffffffffffffffffffffffffff167f106f923f993c2149d49b4255ff723acafa1f2d94393f561d3eda32ae348f72418260405161078a91906114e9565b60405180910390a264e8d4a51000600854835f01546107a991906117bf565b6107b3919061182d565b826001018190555050506107c561128a565b565b60095481565b5f60045f8373ffffffffffffffffffffffffffffffffffffffff1673ffffffffffffffffffffffffffffffffffffffff1681526020019081526020015f205f01549050919050565b60025f9054906101000a900473ffffffffffffffffffffffffffffffffffffffff1681565b610842610f90565b61084b5f611293565b565b60055481565b60075481565b5f5f5f9054906101000a900473ffffffffffffffffffffffffffffffffffffffff16905090565b60065481565b61088e610f90565b5f81116108d0576040517f08c379a00000000000000000000000000000000000000000000000000000000081526004016108c790611942565b60405180910390fd5b61091e33308360035f9054906101000a900473ffffffffffffffffffffffffffffffffffffffff1673ffffffffffffffffffffffffffffffffffffffff16611354909392919063ffffffff16565b7fe42dde25409a3e8c7c119c1c722610d9e9bd96e73e3cead774863c9ffdd870d68160405161094d91906114e9565b60405180910390a150565b60085481565b610966610f90565b60095442106109aa576040517f08c379a00000000000000000000000000000000000000000000000000000000081526004016109a1906119aa565b60405180910390fd5b6109b2611017565b806005819055507f41d466ebd06fb97e7786086ac8b69b7eb7da798592036251291d34e9791cde01816040516109e891906114e9565b60405180910390a150565b6109fb6110c3565b6009544210610a3f576040517f08c379a0000000000000000000000000000000000000000000000000000000008152600401610a3690611a12565b60405180910390fd5b5f8111610a81576040517f08c379a0000000000000000000000000000000000000000000000000000000008152600401610a7890611a7a565b60405180910390fd5b5f60045f3373ffffffffffffffffffffffffffffffffffffffff1673ffffffffffffffffffffffffffffffffffffffff1681526020019081526020015f209050610ac9611017565b5f815f01541115610b6a575f816001015464e8d4a51000600854845f0154610af191906117bf565b610afb919061182d565b610b05919061185d565b90505f811115610b6857610b193382611109565b3373ffffffffffffffffffffffffffffffffffffffff167f106f923f993c2149d49b4255ff723acafa1f2d94393f561d3eda32ae348f724182604051610b5f91906114e9565b60405180910390a25b505b610bb833308460025f9054906101000a900473ffffffffffffffffffffffffffffffffffffffff1673ffffffffffffffffffffffffffffffffffffffff16611354909392919063ffffffff16565b81815f015f828254610bca9190611a98565b925050819055508160075f828254610be29190611a98565b9250508190555064e8d4a51000600854825f0154610c0091906117bf565b610c0a919061182d565b81600101819055503373ffffffffffffffffffffffffffffffffffffffff167f9e71bc8eea02a63969f509818f2dafb9254532904319f9dbda79b67bd34a5f3d83604051610c5891906114e9565b60405180910390a250610c6961128a565b50565b6004602052805f5260405f205f91509050805f0154908060010154905082565b610c946110c3565b5f60045f3373ffffffffffffffffffffffffffffffffffffffff1673ffffffffffffffffffffffffffffffffffffffff1681526020019081526020015f2090505f815f015490505f8111610d1d576040517f08c379a0000000000000000000000000000000000000000000000000000000008152600401610d1490611b15565b60405180910390fd5b5f825f01819055505f82600101819055508060075f828254610d3f919061185d565b92505081905550610d92338260025f9054906101000a900473ffffffffffffffffffffffffffffffffffffffff1673ffffffffffffffffffffffffffffffffffffffff1661120b9092919063ffffffff16565b3373ffffffffffffffffffffffffffffffffffffffff167f2e39961a70a10f4d46383948095ac2752b3ee642a7c76aa827410aaff08c2e5182604051610dd891906114e9565b60405180910390a25050610dea61128a565b565b610df4610f90565b5f73ffffffffffffffffffffffffffffffffffffffff168173ffffffffffffffffffffffffffffffffffffffff1603610e64575f6040517f1e4fbdf7000000000000000000000000000000000000000000000000000000008152600401610e5b919061160a565b60405180910390fd5b610e6d81611293565b50565b5f5f60045f8473ffffffffffffffffffffffffffffffffffffffff1673ffffffffffffffffffffffffffffffffffffffff1681526020019081526020015f2090505f60085490505f429050600954811115610ecb5760095490505b60065481118015610ede57505f60075414155b15610f33575f60065482610ef2919061185d565b90505f60055482610f0391906117bf565b905060075464e8d4a5100082610f1991906117bf565b610f23919061182d565b84610f2e9190611a98565b935050505b826001015464e8d4a5100083855f0154610f4d91906117bf565b610f57919061182d565b610f61919061185d565b9350505050919050565b60035f9054906101000a900473ffffffffffffffffffffffffffffffffffffffff1681565b610f986113d6565b73ffffffffffffffffffffffffffffffffffffffff16610fb6610859565b73ffffffffffffffffffffffffffffffffffffffff161461101557610fd96113d6565b6040517f118cdaa700000000000000000000000000000000000000000000000000000000815260040161100c919061160a565b60405180910390fd5b565b5f429050600654811161102a57506110c1565b60095481111561103a5760095490505b600654811161104957506110c1565b5f6007540361105f5780600681905550506110c1565b5f6006548261106e919061185d565b90505f6005548261107f91906117bf565b905060075464e8d4a510008261109591906117bf565b61109f919061182d565b60085f8282546110af9190611a98565b92505081905550826006819055505050505b565b6002600154036110ff576040517f3ee5aeb500000000000000000000000000000000000000000000000000000000815260040160405180910390fd5b6002600181905550565b5f60035f9054906101000a900473ffffffffffffffffffffffffffffffffffffffff1673ffffffffffffffffffffffffffffffffffffffff166370a08231306040518263ffffffff1660e01b8152600401611164919061160a565b602060405180830381865afa15801561117f573d5f5f3e3d5ffd5b505050506040513d601f19601f820116820180604052508101906111a39190611b47565b9050808211156111b1578091505b5f82111561120657611205838360035f9054906101000a900473ffffffffffffffffffffffffffffffffffffffff1673ffffffffffffffffffffffffffffffffffffffff1661120b9092919063ffffffff16565b5b505050565b611285838473ffffffffffffffffffffffffffffffffffffffff1663a9059cbb858560405160240161123e929190611b72565b604051602081830303815290604052915060e01b6020820180517bffffffffffffffffffffffffffffffffffffffffffffffffffffffff83818316178352505050506113dd565b505050565b60018081905550565b5f5f5f9054906101000a900473ffffffffffffffffffffffffffffffffffffffff169050815f5f6101000a81548173ffffffffffffffffffffffffffffffffffffffff021916908373ffffffffffffffffffffffffffffffffffffffff1602179055508173ffffffffffffffffffffffffffffffffffffffff168173ffffffffffffffffffffffffffffffffffffffff167f8be0079c531659141344cd1fd0a4f28419497f9722a3daafe3b4186f6b6457e060405160405180910390a35050565b6113d0848573ffffffffffffffffffffffffffffffffffffffff166323b872dd86868660405160240161138993929190611b99565b604051602081830303815290604052915060e01b6020820180517bffffffffffffffffffffffffffffffffffffffffffffffffffffffff83818316178352505050506113dd565b50505050565b5f33905090565b5f5f60205f8451602086015f885af1806113fc576040513d5f823e3d81fd5b3d92505f519150505f8214611415576001811415611430565b5f8473ffffffffffffffffffffffffffffffffffffffff163b145b1561147257836040517f5274afe7000000000000000000000000000000000000000000000000000000008152600401611469919061160a565b60405180910390fd5b50505050565b5f5ffd5b5f819050919050565b61148e8161147c565b8114611498575f5ffd5b50565b5f813590506114a981611485565b92915050565b5f602082840312156114c4576114c3611478565b5b5f6114d18482850161149b565b91505092915050565b6114e38161147c565b82525050565b5f6020820190506114fc5f8301846114da565b92915050565b5f73ffffffffffffffffffffffffffffffffffffffff82169050919050565b5f61152b82611502565b9050919050565b61153b81611521565b8114611545575f5ffd5b50565b5f8135905061155681611532565b92915050565b5f6020828403121561157157611570611478565b5b5f61157e84828501611548565b91505092915050565b5f819050919050565b5f6115aa6115a56115a084611502565b611587565b611502565b9050919050565b5f6115bb82611590565b9050919050565b5f6115cc826115b1565b9050919050565b6115dc816115c2565b82525050565b5f6020820190506115f55f8301846115d3565b92915050565b61160481611521565b82525050565b5f60208201905061161d5f8301846115fb565b92915050565b5f6040820190506116365f8301856114da565b61164360208301846114da565b9392505050565b5f82825260208201905092915050565b7f496e76616c696420656e642074696d65000000000000000000000000000000005f82015250565b5f61168e60108361164a565b91506116998261165a565b602082019050919050565b5f6020820190508181035f8301526116bb81611682565b9050919050565b7f43616e6e6f74205769746864726177203020416d6f756e7400000000000000005f82015250565b5f6116f660188361164a565b9150611701826116c2565b602082019050919050565b5f6020820190508181035f830152611723816116ea565b9050919050565b7f4e6f7420656e6f756768207374616b65640000000000000000000000000000005f82015250565b5f61175e60118361164a565b91506117698261172a565b602082019050919050565b5f6020820190508181035f83015261178b81611752565b9050919050565b7f4e487b71000000000000000000000000000000000000000000000000000000005f52601160045260245ffd5b5f6117c98261147c565b91506117d48361147c565b92508282026117e28161147c565b915082820484148315176117f9576117f8611792565b5b5092915050565b7f4e487b71000000000000000000000000000000000000000000000000000000005f52601260045260245ffd5b5f6118378261147c565b91506118428361147c565b92508261185257611851611800565b5b828204905092915050565b5f6118678261147c565b91506118728361147c565b925082820390508181111561188a57611889611792565b5b92915050565b7f4e6f2072657761726473000000000000000000000000000000000000000000005f82015250565b5f6118c4600a8361164a565b91506118cf82611890565b602082019050919050565b5f6020820190508181035f8301526118f1816118b8565b9050919050565b7f5a65726f20616d6f756e740000000000000000000000000000000000000000005f82015250565b5f61192c600b8361164a565b9150611937826118f8565b602082019050919050565b5f6020820190508181035f83015261195981611920565b9050919050565b7f52657761726420706572696f6420656e646564000000000000000000000000005f82015250565b5f61199460138361164a565b915061199f82611960565b602082019050919050565b5f6020820190508181035f8301526119c181611988565b9050919050565b7f5374616b696e6720706572696f6420656e6465640000000000000000000000005f82015250565b5f6119fc60148361164a565b9150611a07826119c8565b602082019050919050565b5f6020820190508181035f830152611a29816119f0565b9050919050565b7f43616e6e6f74207374616b65207a65726f20746f6b656e7300000000000000005f82015250565b5f611a6460188361164a565b9150611a6f82611a30565b602082019050919050565b5f6020820190508181035f830152611a9181611a58565b9050919050565b5f611aa28261147c565b9150611aad8361147c565b9250828201905080821115611ac557611ac4611792565b5b92915050565b7f4e6f7468696e6720746f207769746864726177000000000000000000000000005f82015250565b5f611aff60138361164a565b9150611b0a82611acb565b602082019050919050565b5f6020820190508181035f830152611b2c81611af3565b9050919050565b5f81519050611b4181611485565b92915050565b5f60208284031215611b5c57611b5b611478565b5b5f611b6984828501611b33565b91505092915050565b5f604082019050611b855f8301856115fb565b611b9260208301846114da565b9392505050565b5f606082019050611bac5f8301866115fb565b611bb960208301856115fb565b611bc660408301846114da565b94935050505056fea2646970667358221220834446cf0d26f65dd5f0e814396e13e7f92faa3b827898aa8e442edca3a9074864736f6c634300081c0033",
  "linkReferences": {},
  "deployedLinkReferences": {},
  "immutableReferences": {},
  "inputSourceName": "project/contracts/Staking.sol",
  "buildInfoId": "solc-0_8_28-ad26e4059796d1eae470ebeaa23b143f64b360d1"
}