{
  "_format": "hh3-artifact-1",
  "contractName": "Staking",
  "sourceName": "contracts/Staking.sol",
  "abi": [
    {
      "inputs": [
        {
          "internalType": "address",
          "name": "_stakeToken",
          "type": "address"
        },
        {
          "internalType": "address",
          "name": "_rewardToken",
          "type": "address"
        }
      ],
      "stateMutability": "nonpayable",
      "type": "constructor"
    },
    {
      "inputs": [
        {
          "internalType": "address",
          "name": "owner",
          "type": "address"
        }
      ],
      "name": "OwnableInvalidOwner",
      "type": "error"
    },
    {
      "inputs": [
        {
          "internalType": "address",
          "name": "account",
          "type": "address"
        }
      ],
      "name": "OwnableUnauthorizedAccount",
      "type": "error"
    },
    {
      "inputs": [],
      "name": "ReentrancyGuardReentrantCall",
      "type": "error"
    },
    {
      "inputs": [
        {
          "internalType": "address",
          "name": "token",
          "type": "address"
        }
      ],
      "name": "SafeERC20FailedOperation",
      "type": "error"
    },
    {
      "anonymous": false,
      "inputs": [
        {
          "indexed": true,
          "internalType": "address",
          "name": "user",
          "type": "address"
        },
        {
          "indexed": false,
          "internalType": "uint256",
          "name": "amount",
          "type": "uint256"
        }
      ],
      "name": "EmergencyWithdrawn",
      "type": "event"
    },
    {
      "anonymous": false,
      "inputs": [
        {
          "indexed": true,
          "internalType": "address",
          "name": "previousOwner",
          "type": "address"
        },
        {
          "indexed": true,
          "internalType": "address",
          "name": "newOwner",
          "type": "address"
        }
      ],
      "name": "OwnershipTransferred",
      "type": "event"
    },
    {
      "anonymous": false,
      "inputs": [
        {
          "indexed": true,
          "internalType": "address",
          "name": "user",
          "type": "address"
        },
        {
          "indexed": false,
          "internalType": "uint256",
          "name": "amount",
          "type": "uint256"
        }
      ],
      "name": "RewardClaimed",
      "type": "event"
    },
    {
      "anonymous": false,
      "inputs": [
        {
          "indexed": false,
          "internalType": "uint256",
          "name": "newEndTime",
          "type": "uint256"
        }
      ],
      "name": "RewardEndTimeUpdated",
      "type": "event"
    },
    {
      "anonymous": false,
      "inputs": [
        {
          "indexed": false,
          "internalType": "uint256",
          "name": "newRate",
          "type": "uint256"
        }
      ],
      "name": "RewardRateUpdated",
      "type": "event"
    },
    {
      "anonymous": false,
      "inputs": [
        {
          "indexed": false,
          "internalType": "uint256",
          "name": "amount",
          "type": "uint256"
        }
      ],
      "name": "RewardsFunded",
      "type": "event"
    },
    {
      "anonymous": false,
      "inputs": [
        {
          "indexed": true,
          "internalType": "address",
          "name": "user",
          "type": "address"
        },
        {
          "indexed": false,
          "internalType": "uint256",
          "name": "amount",
          "type": "uint256"
        }
      ],
      "name": "Staked",
      "type": "event"
    },
    {
      "anonymous": false,
      "inputs": [
        {
          "indexed": true,
          "internalType": "address",
          "name": "user",
          "type": "address"
        },
        {
          "indexed": false,
          "internalType": "uint256",
          "name": "amount",
          "type": "uint256"
        }
      ],
      "name": "Withdrawn",
      "type": "event"
    },
    {
      "inputs": [],
      "name": "accRewardPerShare",
      "outputs": [
        {
          "internalType": "uint256",
          "name": "",
          "type": "uint256"
        }
      ],
      "stateMutability": "view",
      "type": "function"
    },
    {
      "inputs": [],
      "name": "claimRewards",
      "outputs": [],
      "stateMutability": "nonpayable",
      "type": "function"
    },
    {
      "inputs": [],
      "name": "emergencyWithdraw",
      "outputs": [],
      "stateMutability": "nonpayable",
      "type": "function"
    },
    {
      "inputs": [
        {
          "internalType": "uint256",
          "name": "amount",
          "type": "uint256"
        }
      ],
      "name": "fundRewards",
      "outputs": [],
      "stateMutability": "nonpayable",
      "type": "function"
    },
    {
      "inputs": [
        {
          "internalType": "address",
          "name": "_user",
          "type": "address"
        }
      ],
      "name": "getPendingRewards",
      "outputs": [
        {
          "internalType": "uint256",
          "name": "",
          "type": "uint256"
        }
      ],
      "stateMutability": "view",
      "type": "function"
    },
    {
      "inputs": [
        {
          "internalType": "address",
          "name": "user",
          "type": "address"
        }
      ],
      "name": "getStakedBalance",
      "outputs": [
        {
          "internalType": "uint256",
          "name": "",
          "type": "uint256"
        }
      ],
      "stateMutability": "view",
      "type": "function"
    },
    {
      "inputs": [],
      "name": "lastRewardTime",
      "outputs": [
        {
          "internalType": "uint256",
          "name": "",
          "type": "uint256"
        }
      ],
      "stateMutability": "view",
      "type": "function"
    },
    {
      "inputs": [],
      "name": "owner",
      "outputs": [
        {
          "internalType": "address",
          "name": "",
          "type": "address"
        }
      ],
      "stateMutability": "view",
      "type": "function"
    },
    {
      "inputs": [],
      "name": "renounceOwnership",
      "outputs": [],
      "stateMutability": "nonpayable",
      "type": "function"
    },
    {
      "inputs": [],
      "name": "rewardEndTime",
      "outputs": [
        {
          "internalType": "uint256",
          "name": "",
          "type": "uint256"
        }
      ],
      "stateMutability": "view",
      "type": "function"
    },
    {
      "inputs": [],
      "name": "rewardRate",
      "outputs": [
        {
          "internalType": "uint256",
          "name": "",
          "type": "uint256"
        }
      ],
      "stateMutability": "view",
      "type": "function"
    },
    {
      "inputs": [],
      "name": "rewardToken",
      "outputs": [
        {
          "internalType": "contract IERC20",
          "name": "",
          "type": "address"
        }
      ],
      "stateMutability": "view",
      "type": "function"
    },
    {
      "inputs": [
        {
          "internalType": "uint256",
          "name": "_endTime",
          "type": "uint256"
        }
      ],
      "name": "setRewardEndTime",
      "outputs": [],
      "stateMutability": "nonpayable",
      "type": "function"
    },
    {
      "inputs": [
        {
          "internalType": "uint256",
          "name": "_rate",
          "type": "uint256"
        }
      ],
      "name": "setRewardRate",
      "outputs": [],
      "stateMutability": "nonpayable",
      "type": "function"
    },
    {
      "inputs": [
        {
          "internalType": "uint256",
          "name": "amount",
          "type": "uint256"
        }
      ],
      "name": "stake",
      "outputs": [],
      "stateMutability": "nonpayable",
      "type": "function"
    },
    {
      "inputs": [],
      "name": "stakeToken",
      "outputs": [
        {
          "internalType": "contract IERC20",
          "name": "",
          "type": "address"
        }
      ],
      "stateMutability": "view",
      "type": "function"
    },
    {
      "inputs": [],
      "name": "totalStaked",
      "outputs": [
        {
          "internalType": "uint256",
          "name": "",
          "type": "uint256"
        }
      ],
      "stateMutability": "view",
      "type": "function"
    },
    {
      "inputs": [
        {
          "internalType": "address",
          "name": "newOwner",
          "type": "address"
        }
      ],
      "name": "transferOwnership",
      "outputs": [],
      "stateMutability": "nonpayable",
      "type": "function"
    },
    {
      "inputs": [
        {
          "internalType": "address",
          "name": "",
          "type": "address"
        }
      ],
      "name": "users",
      "outputs": [
        {
          "internalType": "uint256",
          "name": "amount",
          "type": "uint256"
        },
        {
          "internalType": "uint256",
          "name": "rewardDebt",
          "type": "uint256"
        }
      ],
      "stateMutability": "view",
      "type": "function"
    },
    {
      "inputs": [
        {
          "internalType": "uint256",
          "name": "amount",
          "type": "uint256"
        }
      ],
      "name": "withdraw",
      "outputs": [],
      "stateMutability": "nonpayable",
      "type": "function"
    }
  ],
  "bytecode": "0x608060405234801561000f575f5ffd5b5060405161101a38038061101a83398101604081905261002e916100fc565b338061005357604051631e4fbdf760e01b81525f600482015260240160405180910390fd5b61005c81610092565b5060018055600280546001600160a01b039384166001600160a01b0319918216179091556003805492909316911617905561012d565b5f80546001600160a01b038381166001600160a01b0319831681178455604051919092169283917f8be0079c531659141344cd1fd0a4f28419497f9722a3daafe3b4186f6b6457e09190a35050565b80516001600160a01b03811681146100f7575f5ffd5b919050565b5f5f6040838503121561010d575f5ffd5b610116836100e1565b9150610124602084016100e1565b90509250929050565b610ee08061013a5f395ff3fe608060405234801561000f575f5ffd5b5060043610610127575f3560e01c80639231cf74116100a9578063a87430ba1161006e578063a87430ba1461023f578063db2e21bc1461027a578063f2fde38b14610282578063f6ed201714610295578063f7c618c1146102a8575f5ffd5b80639231cf74146101f457806393707a19146101fd578063939d6237146102105780639e447fc614610219578063a694fc3a1461022c575f5ffd5b806351ed6a30116100ef57806351ed6a301461019f578063715018a6146101ca5780637b0a47ee146101d2578063817b1cd2146101db5780638da5cb5b146101e4575f5ffd5b8063018413e71461012b5780632e1a7d4d14610140578063372500ab1461015357806337e9f64a1461015b5780633a02a42d14610177575b5f5ffd5b61013e610139366004610dd9565b6102bb565b005b61013e61014e366004610dd9565b61034e565b61013e610524565b61016460095481565b6040519081526020015b60405180910390f35b610164610185366004610df0565b6001600160a01b03165f9081526004602052604090205490565b6002546101b2906001600160a01b031681565b6040516001600160a01b03909116815260200161016e565b61013e61061c565b61016460055481565b61016460075481565b5f546001600160a01b03166101b2565b61016460065481565b61013e61020b366004610dd9565b61062d565b61016460085481565b61013e610227366004610dd9565b6106ba565b61013e61023a366004610dd9565b610746565b61026561024d366004610df0565b60046020525f90815260409020805460019091015482565b6040805192835260208301919091520161016e565b61013e610927565b61013e610290366004610df0565b6109fb565b6101646102a3366004610df0565b610a35565b6003546101b2906001600160a01b031681565b6102c3610afb565b42811161030a5760405162461bcd60e51b815260206004820152601060248201526f496e76616c696420656e642074696d6560801b60448201526064015b60405180910390fd5b610312610b27565b60098190556040518181527ffdc54c80c78674baa0169c68fbf18f553eb14ee3537ad05eb491b5de2d7cc0cf906020015b60405180910390a150565b610356610bbc565b335f908152600460205260409020816103b15760405162461bcd60e51b815260206004820152601860248201527f43616e6e6f74205769746864726177203020416d6f756e7400000000000000006044820152606401610301565b80548211156103f65760405162461bcd60e51b8152602060048201526011602482015270139bdd08195b9bdd59da081cdd185ad959607a1b6044820152606401610301565b6103fe610b27565b5f816001015464e8d4a51000600854845f015461041b9190610e31565b6104259190610e4e565b61042f9190610e6d565b90508015610477576104413382610be6565b60405181815233907f106f923f993c2149d49b4255ff723acafa1f2d94393f561d3eda32ae348f72419060200160405180910390a25b82825f015f8282546104899190610e6d565b925050819055508260075f8282546104a19190610e6d565b90915550506002546104bd906001600160a01b03163385610c80565b600854825464e8d4a51000916104d291610e31565b6104dc9190610e4e565b600183015560405183815233907f7084f5476618d8e60b11ef0d7d3f06914655adb8793e28ff7f018d4c76d505d59060200160405180910390a2505061052160018055565b50565b61052c610bbc565b335f908152600460205260409020610542610b27565b5f816001015464e8d4a51000600854845f015461055f9190610e31565b6105699190610e4e565b6105739190610e6d565b90505f81116105b15760405162461bcd60e51b815260206004820152600a6024820152694e6f207265776172647360b01b6044820152606401610301565b6105bb3382610be6565b60405181815233907f106f923f993c2149d49b4255ff723acafa1f2d94393f561d3eda32ae348f72419060200160405180910390a2600854825464e8d4a510009161060591610e31565b61060f9190610e4e565b600192830155508055565b565b610624610afb565b61061a5f610cdf565b610635610afb565b5f81116106725760405162461bcd60e51b815260206004820152600b60248201526a16995c9bc8185b5bdd5b9d60aa1b6044820152606401610301565b60035461068a906001600160a01b0316333084610d2e565b6040518181527fe42dde25409a3e8c7c119c1c722610d9e9bd96e73e3cead774863c9ffdd870d690602001610343565b6106c2610afb565b60095442106107095760405162461bcd60e51b815260206004820152601360248201527214995dd85c99081c195c9a5bd908195b991959606a1b6044820152606401610301565b610711610b27565b60058190556040518181527f41d466ebd06fb97e7786086ac8b69b7eb7da798592036251291d34e9791cde0190602001610343565b61074e610bbc565b60095442106107965760405162461bcd60e51b815260206004820152601460248201527314dd185ada5b99c81c195c9a5bd908195b99195960621b6044820152606401610301565b5f81116107e55760405162461bcd60e51b815260206004820152601860248201527f43616e6e6f74207374616b65207a65726f20746f6b656e7300000000000000006044820152606401610301565b335f9081526004602052604090206107fb610b27565b80541561087d575f816001015464e8d4a51000600854845f015461081f9190610e31565b6108299190610e4e565b6108339190610e6d565b9050801561087b576108453382610be6565b60405181815233907f106f923f993c2149d49b4255ff723acafa1f2d94393f561d3eda32ae348f72419060200160405180910390a25b505b600254610895906001600160a01b0316333085610d2e565b81815f015f8282546108a79190610e80565b925050819055508160075f8282546108bf9190610e80565b9091555050600854815464e8d4a51000916108d991610e31565b6108e39190610e4e565b600182015560405182815233907f9e71bc8eea02a63969f509818f2dafb9254532904319f9dbda79b67bd34a5f3d9060200160405180910390a25061052160018055565b61092f610bbc565b335f9081526004602052604090208054806109825760405162461bcd60e51b81526020600482015260136024820152724e6f7468696e6720746f20776974686472617760681b6044820152606401610301565b5f808355600183018190556007805483929061099f908490610e6d565b90915550506002546109bb906001600160a01b03163383610c80565b60405181815233907f2e39961a70a10f4d46383948095ac2752b3ee642a7c76aa827410aaff08c2e519060200160405180910390a2505061061a60018055565b610a03610afb565b6001600160a01b038116610a2c57604051631e4fbdf760e01b81525f6004820152602401610301565b61052181610cdf565b6001600160a01b0381165f9081526004602052604081206008546009544290811115610a6057506009545b60065481118015610a72575060075415155b15610ac5575f60065482610a869190610e6d565b90505f60055482610a979190610e31565b600754909150610aac8264e8d4a51000610e31565b610ab69190610e4e565b610ac09085610e80565b935050505b6001830154835464e8d4a5100090610ade908590610e31565b610ae89190610e4e565b610af29190610e6d565b95945050505050565b5f546001600160a01b0316331461061a5760405163118cdaa760e01b8152336004820152602401610301565b60065442908111610b355750565b600954811115610b4457506009545b6006548111610b505750565b6007545f03610b5e57600655565b5f60065482610b6d9190610e6d565b90505f60055482610b7e9190610e31565b600754909150610b938264e8d4a51000610e31565b610b9d9190610e4e565b60085f828254610bad9190610e80565b90915550505060069190915550565b600260015403610bdf57604051633ee5aeb560e01b815260040160405180910390fd5b6002600155565b6003546040516370a0823160e01b81523060048201525f916001600160a01b0316906370a0823190602401602060405180830381865afa158015610c2c573d5f5f3e3d5ffd5b505050506040513d601f19601f82011682018060405250810190610c509190610e93565b905080821115610c5e578091505b8115610c7b57600354610c7b906001600160a01b03168484610c80565b505050565b6040516001600160a01b03838116602483015260448201839052610c7b91859182169063a9059cbb906064015b604051602081830303815290604052915060e01b6020820180516001600160e01b038381831617835250505050610d6d565b5f80546001600160a01b038381166001600160a01b0319831681178455604051919092169283917f8be0079c531659141344cd1fd0a4f28419497f9722a3daafe3b4186f6b6457e09190a35050565b6040516001600160a01b038481166024830152838116604483015260648201839052610d679186918216906323b872dd90608401610cad565b50505050565b5f5f60205f8451602086015f885af180610d8c576040513d5f823e3d81fd5b50505f513d91508115610da3578060011415610db0565b6001600160a01b0384163b155b15610d6757604051635274afe760e01b81526001600160a01b0385166004820152602401610301565b5f60208284031215610de9575f5ffd5b5035919050565b5f60208284031215610e00575f5ffd5b81356001600160a01b0381168114610e16575f5ffd5b9392505050565b634e487b7160e01b5f52601160045260245ffd5b8082028115828204841417610e4857610e48610e1d565b92915050565b5f82610e6857634e487b7160e01b5f52601260045260245ffd5b500490565b81810381811115610e4857610e48610e1d565b80820180821115610e4857610e48610e1d565b5f60208284031215610ea3575f5ffd5b505191905056fea2646970667358221220019f1bda675375807ca5d69866f4d395c14262bd1ebccccd5130039fabfacaa464736f6c634300081c0033",
  "linkReferences": {},
  "deployedLinkReferences": {},
  "immutableReferences": {},
  "inputSourceName": "project/contracts/Staking.sol",
  "buildInfoId": "solc-0_8_28-ee7dbd5ff3f2d1f629692beeb85132de62184ddc"
}